:100000000C9437210C9468210C9468210C9468217D
:100010000C9468210C9468210C9468210C9468213C
:100020000C9468210C9468210C9468210C9468212C
:100030000C9468210C94F4840C9468210C9468212D
:100040000C9468210C949F920C9468210C94682164
:100050000C9468210C9468210C9446910C9465DBF7
:100060000C9468210C941C910C94EC900C946821D5
:100070000C9468210C9468210C9468210C946821DC
:100080000C9468210C9468210C9468210C946821CC
:100090000C9468210C9468210C9468210C946821BC
:1000A0000C9468210C9468210C9468210C946821AC
:1000B0000C9468210C9468210C9468210C9468219C
:1000C0000C9468210C9468210C9468210C9468218C
:1000D0000C9468210C9468210C9468210C9468217C
:1000E0000C946821522A572A5C2A682A742A012B08
:1000F000802A882A902A9C2AA82AB42AC52AD12A8A
:10010000012BDD2AE92AF52A896CA16CA16CA16C6E
:10011000A16CA16CA16CA16CA16CA16CA16CA16C77
:10012000A16CA16CA16CA16CA16CA16CA16CA16C67
:10013000A16CA16CA16C506C5A6C3C6C326CE46B81
:10014000EE6B616B466C146C1E6C646C6E6C716B48
:100150004F6B786C0A6CA16C286C006CF86BA16C0E
:10016000A16CA16CC66BD06BDA6BA16CA16CA16C9D
:10017000A16CA16CA16C506C5A6C3C6C326CE46B41
:10018000EE6B616B466C146C1E6C646C6E6C716B08
:100190004F6B786C0A6CA16C286C006CF86BA16CCE
:1001A000A16CA16CC66BD06BDA6BF883FB83EA831E
:1001B000EE83F4833284FF83038409840D841184E5
:1001C00017841B841F843284258429842D84084A43
:1001D000D73B3BCE016E84BCBFFDC12F3D6C74315B
:1001E0009ABD56833DDA3D00C77F11BED9E4BB4CB2
:1001F0003E916BAAAABE000000803F05A84CCDB27C
:10020000D44EB93836A9020C50B9918688083CA65C
:10021000AAAA2ABE000000803F000D944300456E4C
:10022000642066696C65206C697374004265676957
:100230006E2066696C65206C69737400534420708D
:1002400072696E74696E67206279746520004E6F02
:1002500074205344207072696E74696E670057721F
:100260006974696E6720746F2066696C653A200056
:100270006F70656E206661696C65642C2046696CE0
:10028000653A20004372656174696F6E206661692A
:100290006C6564004469726563746F72792063727F
:1002A0006561746564006578747275646572206355
:1002B0006F6F6C6572207370656564205B302D32E2
:1002C00035355D0064697374616E636520746F20F9
:1002D00072657472616374207768656E2068656109
:1002E00074696E67205B6D6D5D0074656D702E20A6
:1002F000666F722072657472616374696F6E2077C5
:1003000068656E2068656174696E67205B435D0097
:1003100074656D702E2073746162696C697A6520F2
:1003200074696D65205B735D005A2D6F6666736539
:1003300074205B73746570735D00592D6F6666730E
:100340006574205B73746570735D00582D6F66660D
:10035000736574205B73746570735D00504944204D
:100360006D61782076616C7565205B302D32353596
:100370005D0050494420442D6761696E0050494436
:1003800020492D6761696E0050494420502D6761F6
:10039000696E2F646561642D74696D650050494410
:1003A000206472697665206D696E0050494420644E
:1003B00072697665206D61780068656174206D6191
:1003C0006E61676572205B302D335D00616363652C
:1003D0006C65726174696F6E205B6D6D2F735E3238
:1003E0005D00737461727420666565647261746522
:1003F000205B6D6D2F735D006D61782E20666565E5
:100400006472617465205B6D6D2F735D007374653C
:10041000707320706572206D6D0052657472616337
:1004200074696F6E20756E646F207370656564000B
:10043000457874726120657874727573696F6E2087
:100440006F6E20756E646F207265747261637420C4
:100450005B6D6D5D0052657472616374696F6E20CF
:100460007A2D6C696674205B6D6D5D0052657472E7
:10047000616374696F6E207370656564205B6D6D78
:100480002F735D0052657472616374696F6E206CC6
:10049000656E677468205B6D6D5D00456E61626CB2
:1004A000652072657472616374696F6E20636F6E2C
:1004B00076657273696F6E205B302F315D00426527
:1004C0006420504944206D61782076616C75652008
:1004D0005B302D3235355D00426564205049442043
:1004E000442D6761696E004265642050494420498B
:1004F0002D6761696E004265642050494420502D8B
:100500006761696E004265642050494420647269E5
:100510007665206D696E0042656420504944206410
:1005200072697665206D6178004265642048656176
:1005300074204D616E61676572205B302D335D0004
:1005400074616E585A204178697320436F6D7065ED
:100550006E736174696F6E0074616E595A204178D0
:10056000697320436F6D70656E736174696F6E009F
:1005700074616E5859204178697320436F6D7065BE
:100580006E736174696F6E004175746F6C6576652A
:100590006C206163746976652028312F3029005AF8
:1005A0002D70726F62652062656E64696E6720638C
:1005B0006F7272656374696F6E2043205B6D6D5D51
:1005C000005A2D70726F62652062656E64696E6795
:1005D00020636F7272656374696F6E2042205B6D79
:1005E0006D5D005A2D70726F62652062656E646980
:1005F0006E6720636F7272656374696F6E2041204D
:100600005B6D6D5D005A2D70726F626520593320ED
:100610005B6D6D5D005A2D70726F626520583320DE
:100620005B6D6D5D005A2D70726F626520593220CE
:100630005B6D6D5D005A2D70726F626520583220BF
:100640005B6D6D5D005A2D70726F626520593120AF
:100650005B6D6D5D005A2D70726F626520583120A0
:100660005B6D6D5D005A2D70726F6265206F6666FE
:100670007365742079205B6D6D5D005A2D70726F0B
:100680006265206F66667365742078205B6D6D5DB2
:10069000005A2D70726F626520782D792D73706508
:1006A0006564205B6D6D2F735D005A2D70726F62F3
:1006B00065207370656564205B6D6D2F735D004D03
:1006C00061782E207A2D70726F6265202D20626510
:1006D0006420646973742E205B6D6D5D005A2D700B
:1006E000726F626520686569676874205B6D6D5D17
:1006F00000436F6174696E6720746869636B6E652F
:100700007373205B6D6D5D00436F72722E206469A0
:1007100061676F6E616C2043205B6D6D5D00436FA0
:1007200072722E20646961676F6E616C2042205B7B
:100730006D6D5D00436F72722E20646961676F6E2C
:10074000616C2041205B6D6D5D0044656C746120BF
:1007500052616469757320432830293A0044656CFE
:1007600074612052616469757320422830293A000F
:1007700044656C746120526164697573204128304E
:10078000293A00416C7068612043283930293A00C9
:10079000416C706861204228333330293A00416C43
:1007A000706861204128323130293A00546F7765F2
:1007B00072205A20656E6473746F70206F66667362
:1007C0006574205B73746570735D00546F77657238
:1007D000205920656E6473746F70206F6666736550
:1007E00074205B73746570735D00546F776572205D
:1007F0005820656E6473746F70206F6666736574DD
:10080000205B73746570735D004D61782070726950
:100810006E7461626C6520726164697573205B6DD2
:100820006D5D00486F72697A6F6E74616C20726FD3
:10083000642072616469757320617420302C3020EB
:100840005B6D6D5D00446961676F6E616C20726FF6
:1008500064206C656E677468205B6D6D5D0054721A
:100860006176656C20616363656C65726174696F44
:100870006E205B6D6D2F735E325D00416363656C4E
:1008800065726174696F6E205B6D6D2F735E325D92
:10089000005365676D656E74732F7320666F7220E9
:1008A0007072696E74696E67005365676D656E740A
:1008B000732F7320666F722074726176656C005AB4
:1008C000206D6178206C656E677468205B6D6D5D6E
:1008D0000059206D6178206C656E677468205B6DCF
:1008E0006D5D0058206D6178206C656E67746820BE
:1008F0005B6D6D5D005A206D696E20706F73205BBB
:100900006D6D5D0059206D696E20706F73205B6D99
:100910006D5D0058206D696E20706F73205B6D6D8A
:100920005D004D61782E206A65726B205B6D6D2FC6
:10093000735D00486F6D696E6720666565647261FE
:100940007465205B6D6D2F735D004D61782E2066A0
:1009500065656472617465205B6D6D2F735D005316
:100960007465707320706572206D6D0053746F70C4
:100970002073746570706572206166746572206999
:100980006E6163746976697479205B6D732C303D98
:100990006F66665D004D61782E20696E61637469D3
:1009A00076652074696D65205B6D732C303D6F66D4
:1009B000665D005072696E74657220616374697659
:1009C00065205B735D0046696C616D656E742070B7
:1009D00072696E746564205B6D5D0042617564725E
:1009E000617465004C616E677561676500504944CC
:1009F000204175746F74756E65206661696C6564FD
:100A0000212074696D656F757400504944204175EB
:100A1000746F74756E65206661696C65642120541D
:100A2000656D706572617475726520746F6F206892
:100A300069676800204B643A2000204B693A200027
:100A4000204B703A200020436C617373696320501F
:100A50004944002054753A2000204B753A2000206C
:100A60006D61783A2000206D696E3A200020643A6A
:100A7000200020626961733A20005049442041758A
:100A8000746F74756E65207374617274004E6F209C
:100A900063617365206C6967687473004D61785495
:100AA000656D703A004469616D657465723A004124
:100AB0006363656C65726174696F6E3A004D61784D
:100AC00053706565643A004A65726B3A004D61780F
:100AD00042656454656D703A005072696E74657257
:100AE000547970653A44656C7461005A5472617649
:100AF000656C416363656C3A005954726176656C4C
:100B0000416363656C3A005854726176656C416369
:100B100063656C3A005A5072696E74416363656C28
:100B20003A00595072696E74416363656C3A0058BB
:100B30005072696E74416363656C3A005A53697A06
:100B4000653A005953697A653A005853697A653AAB
:100B5000005A4D61783A00594D61783A00584D611C
:100B6000783A005A4D696E3A00594D696E3A00580C
:100B70004D696E3A0052657472616374696F6E55A7
:100B80006E646F53706565643A0052657472616398
:100B900074696F6E556E646F45787472614C6F6ED8
:100BA000674C656E6774683A00526574726163746D
:100BB000696F6E556E646F45787472614C656E67CF
:100BC00074683A0052657472616374696F6E5A4C4E
:100BD0006966743A0052657472616374696F6E532A
:100BE000706565643A0052657472616374696F6E12
:100BF0004C6F6E674C656E6774683A00526574722C
:100C0000616374696F6E4C656E6774683A004A651B
:100C1000726B58593A005072696E746C696E654314
:100C2000616368653A00454550524F4D3A00417541
:100C3000746F6C6576656C3A005A50726F62653AF3
:100C400000436173654C69676874733A005375704B
:100C5000706F72744C6F63616C46696C616D656E28
:100C6000746368616E67653A00537570706F727473
:100C70004731304731313A005A486F6D65446972E7
:100C80003A0059486F6D654469723A0058486F6D73
:100C9000654469723A00536F667477617265506F8C
:100CA0007765725377697463683A004C43443A003D
:100CB00046616E323A300046616E3A0053444361F9
:100CC00072643A004865617465644265643A004D37
:100CD0006978696E6745787472756465723A004E1A
:100CE000756D45787472756465723A00496E7075F9
:100CF000744275666665723A004261756472617429
:100D0000653A00436F6E66696775726174696F6EEC
:100D100020726573657420746F2064656661756CFC
:100D200074732E00696E666F3A436F6E74696E75E8
:100D3000652066726F6D20666174616C20737461EA
:100D40007465000054657374696E67206661746130
:100D50006C206572726F720029203D20002C0042C9
:100D6000656E64696E672061742028004A616D2099
:100D7000646562756767696E673A00436F6E66699E
:100D80006775726174696F6E206C6F616465642051
:100D900066726F6D20454550524F4D2E00436F6E69
:100DA00066696775726174696F6E2073746F7265BE
:100DB0006420746F20454550524F4D2E005365748A
:100DC000204D6963726F7374657070696E6700435C
:100DD0006F6C6420657874727573696F6E206469D6
:100DE00073616C6C6F77656400436F6C6420657829
:100DF00074727573696F6E20616C6C6F77656400D7
:100E00005761746368646F672066656174757265A5
:100E100020776173206E6F7420636F6D70696C65ED
:100E20006420696E746F20746869732076657273CC
:100E3000696F6E21004D32353120004A65726B3A80
:100E40000020746F200053657420766F6C756D659B
:100E50007472696320657874727573696F6E206649
:100E60006F722065787472756465722000446973CE
:100E700061626C656420766F6C756D657472696310
:100E800020657874727573696F6E20666F72206565
:100E90007874727564657220004D313134200046DB
:100EA00049524D574152455F4E414D453A5265704A
:100EB00065746965725F302E39322E392046495289
:100EC0004D574152455F55524C3A68747470733AAD
:100ED0002F2F6769746875622E636F6D2F7265704E
:100EE00065746965722F52657065746965722D4607
:100EF00069726D776172652F2050524F544F434F86
:100F00004C5F56455253494F4E3A312E30204D4199
:100F10004348494E455F545950453A44656C7461A5
:100F20002045585452554445525F434F554E543A0C
:100F3000312052455045544945525F50524F544F0D
:100F4000434F4C3A330050696E2063616E206E6FE0
:100F50007420626520736574206279204D34322CD0
:100F600020697320696E2073656E73697469766594
:100F70002070696E732120002069732000496C6C19
:100F80006567616C20532076616C756520666F72B1
:100F9000204D34320020746F2000536574206F752B
:100FA000747075743A2000000136372603023C3D08
:100FB000380E0F2E303E12130D0C0A081A1C180D95
:100FC0000E35496E76616C69642061726300473347
:100FD0003220005A20616674657220726F746174E9
:100FE000696F6E3A002061745A3A004375727265F7
:100FF0006E745A3A0050726F62696E67206861645D
:101000002072657475726E6564206572726F72739A
:10101000202D206175746F6C6576656C696E672034
:1010200063616E63656C65642E0058202841292039
:10103000746F77657220666C6F6F722073657420B1
:10104000746F3A2000592028422920746F77657206
:1010500020666C6F6F722073657420746F3A200085
:101060005A2028432920746F77657220666C6F6F51
:10107000722073657420746F3A2000473133342036
:1010800000506F7346726F6D53746570733A002C25
:1010900000436F6D7044656C74613A00546F7765FE
:1010A0007220333A00546F77657220323A00546FE1
:1010B00077657220313A0043616C696272617469CC
:1010C0006F6E206D6F76656D656E74206973206C30
:1010D000696D6974656420746F2031306D6D2E0008
:1010E0004669727374206D6F766520746F20746F1B
:1010F00075636820617420782C793D302C30207421
:101100006F206175746F2D736574207261646975E9
:10111000732E0043616C6962726174696F6E206D39
:101120006F76656D656E74206973206C696D697486
:10113000656420746F2031306D6D2E0043616E6EDA
:101140006F74207365742072616469757320616EB9
:101150006420666C6F6F722061742073616D65200E
:1011600074696D652E0043616C6962726174696FA8
:101170006E20636F6465206973206C696D697465A6
:101180006420746F20626F74746F6D20313025207D
:101190006F66205A206865696768740052656C61E3
:1011A0007469766520706F736974696F6E696E67B4
:1011B000004162736F6C75746520706F7369746938
:1011C0006F6E696E6700473332206C6576656C69B7
:1011D0006E67206661696C65642100473239206C56
:1011E0006576656C696E67206661696C656421006F
:1011F000473239206C6576656C696E672066616977
:101200006C65642100473239200052657365742093
:101210005A20686569676874005A2D70726F62653C
:101220002061766572616765206865696768743AF0
:10123000006578656375746547436F6465202F208A
:10124000717565756544656C74614D6F7665207266
:10125000657475726E73206572726F7200556E6B75
:101260006E6F776E20636F6D6D616E643A00206300
:10127000203D20002062203D2000706C616E653AA8
:101280002061203D20004175746F6C6576656C6946
:101290006E672064697361626C6564004175746F88
:1012A0006C6576656C696E6720656E61626C6564FD
:1012B0000000004175746F6C6576656C206D61741B
:1012C00072697820726573657400526F6420526190
:1012D000646975732073657420746F3A20004469E3
:1012E0007361626C696E6720616C6C206865617403
:1012F0006572732064756520746F2064657465631E
:101300007465642073656E736F72206465666563CF
:10131000742E00206465672E204300206D65617384
:101320007572656420004572726F723A436F756C16
:1013300064206E6F7420686F6C642074656D7065D6
:101340007261747572652000206D7300206166748F
:10135000657220004572726F723A54656D702E206E
:1013600072616973656420746F20736C6F772E20CF
:1013700052697365203D20004F6E65206865617479
:101380006572207365656D73206465636F75706C3D
:1013900065642066726F6D20746865726D69737420
:1013A0006F72202D2064697361626C696E672061C1
:1013B0006C6C20666F7220736166657479210048D9
:1013C0006561746572206465636F75706C65640037
:1013D000486561746564206265642065786365654D
:1013E000646564206D61782074656D7065726174E8
:1013F000757265210020453A00205A3A00583A009B
:1014000020403A002042403A0020524157002042FA
:101410003A00202F00543A0053706565644D756C96
:101420007469706C793A00466C6F774D756C7469AD
:10143000706C793A0046616E73706565643A00209D
:101440006D696E0020686F75727320002064617989
:101450007320005072696E74696E672074696D65DF
:101460003A006D20005072696E7465642066696C84
:10147000616D656E743A00000000000000006200BB
:1014800000000000000000610000000000000000FB
:101490006000000000000000005F0000000000008D
:1014A00000006E00000000000000006D0000000061
:1014B000000000006C00000000000000006B000055
:1014C000000000000000890000000000000000880B
:1014D0000000000000000000860000000000000086
:1014E0000085009214891480147714B614AD14A4E6
:1014F000149B14C814BF14DA14D114035504040047
:10150000E3140356040400EB14456E676C697368BA
:10151000000358040200F3140320040200F714002F
:101520000003B00F0000B900000003AF0F0000B8C7
:1015300000000003AE0F0000B700000003AD0F0075
:1015400000B600000003AC0F0000B400000002FB76
:10155000140000210000000202150000220000001B
:101560000426044000960000000422044000950078
:101570000000044C040000BB000000044D04000007
:10158000BC000000042E04000090000000042A04A7
:1015900000008F000000042B0400008E00000004F7
:1015A0002C0400008D00000004290400008C0000C1
:1015B000000413040000560000000416040000524A
:1015C000000000040E04000037000000040D0400B9
:1015D0000036000000040A0400003200091503A4CC
:1015E0002600000000000003B2040000D00000004C
:1015F0000211150000870000000218150000840089
:10160000000004100400008B00841B3A15311528DB
:10161000151F15E619DD19D419CB19C219B919848A
:101620001B761A55154C154315841BA6159D15944C
:10163000158B158215791570157C1873186A186149
:101640001858184F1867155E154618841BB815AF43
:1016500015841BD315CA15C115841BDC15841B000A
:1016600016F715EE15E5150200000B00091602002D
:101670000005001F160200001100291602000003D9
:10168000004B16020000040051160200000200592F
:101690001602000005005D1600000267160000BA81
:1016A000000000026E160000B500000003070400F1
:1016B000003B00000003060400003A000000027531
:1016C0001600000F000000027C1600004E00000013
:1016D000028316000039000000028A160000E400B0
:1016E000000002911600008A00000003820400003E
:1016F0000A01000003810400003F00000003800491
:1017000000003E000000037F0400003D00000003D5
:101710007E0400003C00000004BD040010E3000053
:101720000003B9040010E100000003B8040010E059
:1017300000000003B6040010DF00000003B5040041
:1017400010DE00000003BE040010DD00000003B73F
:10175000040010DC00000003B4040000D20000000C
:10176000031E04000083000000031D04000082002B
:101770000000031C04000081000000031B040000A3
:1017800080000000031A0408007F000000045204D7
:1017900000007E00000004B60F00000901000004F4
:1017A000B50F00000801000004B40F00000701009D
:1017B000000000000000F20000000000000000AB8C
:1017C00000000000000000007000000000000000A9
:1017D000006F00000003542402000300000003E82F
:1017E000030000040000000100000000C900841B89
:1017F000E016D716CE16C516BC16761CB316AA165A
:10180000A1169816841B0D170417FB16F216E9167D
:10181000841B4C1743173A17311728171F17161731
:10182000841B8B1782177917701767175E17551768
:10183000841BA6179D179417CA17C117B817AF179F
:10184000E517DC17D3170000042F0400009B0000ED
:101850000004260420009A000000042504200099BA
:101860000000000424042000980000000423042049
:101870000097000000042204200094000000042DC2
:1018800004000093000200000B00EE1702000006A7
:1018900000041802000008001018020000080020D0
:1018A000180200000400301803F003040038180286
:1018B00000000300401800000000000000F70000D6
:1018C000000000000000DA00841B7C1873186A18FE
:1018D000611858184F184618000002851800000DAE
:1018E000000000028C1800001100000002BB1D0067
:1018F00000100000000293180010D9000000029AA6
:101900001800007D00000002831D00000F00000091
:10191000027C1D00000E000000028A1D00000B006A
:1019200000000000000000E00000000000000000D7
:10193000DA0000000000000000DF000000000000EE
:101940000000DA0000000000000000E100000000DC
:1019500000000000DA0000000000000000DE0000CF
:10196000000000000000DA0000000000000000DDC0
:101970000000000000000000DA000000000000008D
:1019800000DC0000000000000000DA0000000000A1
:10199000000000CF0000000000000000CE000000AA
:1019A0000000000000CD0000000000000000CC009E
:1019B000000002A11800000601000002A61D0000A0
:1019C0002100000002911D00002200000002AD1D58
:1019D00000001F00000002981D000020000000020F
:1019E000B41D00001D000000029F1D00001E00002D
:1019F0000003440400002E00000002A81800002389
:101A0000000000033A040000280000000462040003
:101A100000250000000461040000240000000336DB
:101A2000040000C600000003430400101C00000076
:101A300003310400101B00000003380400001A00EA
:101A400000000347040000180000000337040000F2
:101A5000170000000388130000CB000000044804B6
:101A60000000B1000000041F040000B000000004EA
:101A700057040000CA00000003FD0300101300001B
:101A80000000000000006E00000000000000006D7B
:101A900000000000000000006C00000000000000DA
:101AA000006B00000000000000006A000000000061
:101AB0000000006900000000000000006800000055
:101AC0000000000000670000000000000000660049
:101AD00000000000000000650000000000000000A1
:101AE000640000000000000000630000000000002F
:101AF0000000620000000000000000610000000023
:101B0000000000006000000000000000005F000016
:101B10000000000000005E00000000000000005D0A
:101B200000000000000000005C0000000000000059
:101B3000005B00000000000000005A0000000000F0
:101B400000000059000000000000000058000000E4
:101B500000000000005700000003F40301024D00E4
:101B6000000002AF180200C900000003F7030400E0
:101B70004A00000003F60302044900000003F503D5
:101B800001024800000003E80300000A0000000012
:101B900000000000A80000000000000000A70000F6
:101BA000000000000000A60000000000000000A5EA
:101BB00000BF18B6180200000800C818841B1719C7
:101BC0007B1B0E190519FC18F318EA18E118D81830
:101BD000291920193B1932194D1944195F19561941
:101BE0007119681983197A19A7199E1995198C19F1
:101BF000841B761AE619DD19D419CB19C219B91943
:101C0000F819B019841B131A0A1A011AF819EF19D6
:101C1000841B761A6D1A641A5B1A521A491A401AF2
:101C2000371A2E1A251A1C1A9A1A911A881A7F1A0C
:101C3000BE1AB51AAC1AA31AE21AD91AD01AC71AC0
:101C4000061BFD1AF41AEB1A2A1B211B181B0F1B6B
:101C50004E1B451B3C1B331B841B7B1B721B691BD0
:101C6000601B571B841B961B8D1BA81B9F1B00030F
:101C700010270200B11B000002B51B0000A2002FBC
:101C80002F20616374696F6E3A726573756D6500BC
:101C900044656C6574696F6E206661696C6564008B
:101CA00046696C652064656C6574656400020000BB
:101CB0000A00BC1B0310270200D01B0310270200E0
:101CC000D41B0310270200D81B0310270200DC1BC3
:101CD0000310270200E01B0310270200E41B5265DB
:101CE000717565737450617573653A0055495F414C
:101CF0004354494F4E5F5345545F4D4541535552F0
:101D000045445F4F524947494E2000454550524F88
:101D10004D2075706461746564005072696E7465FD
:101D200072206865696768743A000588130400E8E2
:101D30001B2F2F20616374696F6E3A706175736534
:101D400000696D706F7274616E743A2046696C61DF
:101D50006D656E74206368616E676520726571756C
:101D60006972656421004A616D20636F6E74726FE1
:101D70006C2064697361626C65643A000200000A59
:101D800000F01B0200000600041C0200000C001002
:101D90001C03FC030400281C03FB030400301C0389
:101DA000FA030400381C03EF030400401C03EE0395
:101DB0000400481C03ED030400501C020000060050
:101DC000581C0100000100641C0310270200661C5F
:101DD00003102702006A1C55495F414354494F4E86
:101DE0005F484F4D455F5A200055495F4143544974
:101DF0004F4E5F484F4D455F59200055495F414365
:101E000054494F4E5F484F4D455F58200055495F3C
:101E1000414354494F4E5F484F4D45414C4C200083
:101E2000526573656E643A006F6B20004D69737381
:101E3000696E67206C696E656E756D6265720020F3
:101E4000676F7420004572726F723A6578706563CF
:101E5000746564206C696E652000736B6970200086
:101E60006F6B004563686F3A00446F6E6520707257
:101E7000696E74696E672066696C650053442065FD
:101E800072726F72206669786564005344206572CF
:101E9000726F7220646964206E6F74207265636F64
:101EA0007665722100534420526561642045727248
:101EB0006F720053442072656164206572726F72A4
:101EC000007761697400466F726D6174206572728B
:101ED0006F7200205200204A00204900205000204C
:101EE0005300204600204500205A00205900205869
:101EF00000205072696E7465722073746F70706523
:101F00006420616E64206865617465727320646921
:101F10007361626C65642064756520746F207468F9
:101F20006973206572726F722E204669782065721F
:101F3000726F7220616E64207265737461727420B6
:101F400077697468204D3939392E00666174616C87
:101F50003A006D6F766552656C61746976654469A7
:101F60007374616E6365496E5374657073202F20BE
:101F7000717565756544656C74614D6F7665207229
:101F8000657475726E73206572726F72004320689B
:101F9000697420666C6F6F720043706F73207820D5
:101FA000737175617265200043706F7320782073C0
:101FB00074657073200043706F732079207371759E
:101FC000617265200043706F7320792073746570AF
:101FD000732000422068697420666C6F6F72004243
:101FE000706F732078207371756172652000427084
:101FF0006F732078207374657073200042706F7364
:10200000207920737175617265200042706F7320B2
:1020100079207374657073200041206869742066AC
:102020006C6F6F720041706F7320782073717561EF
:102030007265200041706F7320782073746570732F
:10204000200041706F732079207371756172652073
:102050000041706F7320792073746570732000DC09
:102060001500002100240027002A002D0030003335
:102070000001010000040107010A010000220025FF
:102080000028002B002E0031003400020100000562
:102090000108010B01000020002300260029002C6C
:1020A000002F0032000001000003010601090105B4
:1020B000050505070508080808020202020A0A08C1
:1020C00008040404040101010101010101030303E7
:1020D0000303030303040707070C0C0C0C0C0C0C84
:1020E0000C0202020206060606060606060B0B0B8B
:1020F0000B0B0B0B0B0102102020080810204010C6
:1021000020408002010201080402010102040810BB
:1021100020408080402010080402018004020180D9
:102120004020100804020108040201010204081002
:10213000204080010204081020408000000A0B02A9
:10214000090C0D0E08070304010000000000000048
:10215000000000000000000000000000000000007F
:10216000000000000000001211100000000000003C
:10217000000000000000000000000000000000005F
:102180000002536F667477617265205265736574DF
:10219000005761746368646F6720526573657400EB
:1021A00042726F776E206F7574205265736574008C
:1021B00045787465726E616C205265736574005069
:1021C0006F7765725570000D0E110A0411040A1123
:1021D00011001C1F11111F0000040A0A0A0E1F1F04
:1021E0000E001F1111111F0000001F1F1F1F1F00D5
:1021F00000040A040000000000040E150404041C7E
:10220000004761726167654855420054696C6461BA
:10221000205072696E7465720052657065746965EC
:102220007220302E39322E390046726565205241B7
:102230004D3A0082000001005F204E656564732006
:102240006C616E67756167652073656C6563746941
:102250006F6E005072696E7465723A3A7365747588
:102260007020004175746F726574726163743A0016
:10227000737461727400496E666F3A004572726FD2
:10228000723A00494E46004E414E0050726F746FD4
:10229000636F6C2076657273696F6E206368616E20
:1022A0006765642C20757067726164696E6700549D
:1022B00072616E73666F726D6174696F6E206D61AD
:1022C000747269783A00457874722E004550523A1B
:1022D0003320004550523A322000424C4B2000003F
:1022E00000FF00000000010100000000FF00006985
:1022F00073506F736974696F6E416C6C6F7765644E
:1023000020007C3C3E5E2B3D3F2F5B5D3B2C2A2218
:102310005C000400501D7C00D009A4001009CC0012
:102320008008F40010081C01B807440168076C011C
:1023300028079401E806BC01B806E40188060C02EF
:102340006006340238065C0218068402F005AC020E
:10235000D805D402B805FC0298052403800574034F
:102360005005C4032805140400056404D804B4040B
:10237000B0042C058004A40558041C062804940607
:1023800000040C07D803AC07A8034C087803EC083A
:1023900048038C092003A40AD0021C0BA802AC0C31
:1023A0002802FC0C0802C40DB801140E9801B40EEA
:1023B00038012C0FE000540FB8007C0F8800A40FE8
:1023C0004800F40F28FFFC0FC0F9000000008C0348
:1023D0000800AE035000D603A000F703F000180475
:1023E0004001380490015904E0017A0430029A0453
:1023F0008002BB04D002FC0470032605C0038606DD
:1024000030079709A00F750D201C520E401F1F0F9B
:102410006022FF0F803E0400081D900058091C0137
:10242000B007A801C80634023006C002C0054C033C
:102430006805D80318056404D004F00498047C05EA
:10244000600408063004940600042007D003AC079B
:10245000A80338088003C408580350093003DC0976
:102460000803680AD802F40AB002800B88020C0C38
:102470006002980C3002240DF801B00DC0013C0E32
:102480008001C80E3001540FB800B40F2800E00FCF
:1024900000000400401D900060091C01B007A80165
:1024A000D00634023806C002C8054C036805D803BC
:1024B00018056404D804F00498047C056004080638
:1024C0003004940600042007D003AC07A8033808A2
:1024D0008003C408580350093003DC090803680A64
:1024E000E002F40AB802800B88020C0C6002980C1F
:1024F0003002240DF801B00DC0013C0E8001C80E61
:102500003001540FB800B40F2800E00F00000400A1
:102510000016D800C006AC0178058002C004540340
:1025200048042804E803FC049803D0055003A406DB
:1025300018037807D8024C08A80220097002F40991
:102540003802C80A08029C0BD001700C9001440D9F
:102550005001180EF800EC0E8800C00F00000400B7
:10256000681D4C00500B94005809DC0050082401F1
:10257000A8076C012807B401C006FC0170064402DC
:1025800028068C02F005D402B8051C0388056403F4
:102590005805AC033005F40310053C04E80484043A
:1025A000C804CC04A804140590045C057004A405B8
:1025B0005804EC053804340620047C060804C406DC
:1025C000F0030C07D8035407C8039C07B003E407C3
:1025D00098032C08800374087003BC08580304098E
:1025E00048034C09300394091803DC090803240A42
:1025F000F0026C0AE002B40AC802FC0AB002440B02
:10260000A0028C0B8802D40B70021C0C5802640CC4
:102610004002AC0C2802F40C10023C0DF001840DB9
:10262000D801CC0DB801140E98015C0E7001A40EF7
:102630004801EC0E1801340FD8007C0F8800C40F3D
:102640000800FC0F00000000000000000000000077
:10265000000000000000000000000000000000007A
:10266000000000000000000000000000401F4500C6
:1026700060094F0010095C00C0086B0070087D0005
:1026800020089200D007AC008007CC003007DE00A5
:10269000E006230190065E014006A601F005FF0159
:1026A000A0056D025005F30200059603B0045A041C
:1026B0006004400510044806C0036E077003A808B4
:1026C0002003EB09D002230B8002410C3002390DAC
:1026D000E001040E9001A20E4001170FF000690FF7
:1026E000A000A20F5000C60F0000DD0FB0FFEB0FDF
:1026F00060FF0400700DD8004804AC01580380024C
:10270000D8025403800228043802FC040002D005D9
:10271000C801A4069801780770014C0848012009F7
:102720001801F409F000C80AC8009C0BA000700C46
:102730007000440D3800180E0000EC0EA8FFC00F0A
:10274000E8FE0400001B54006009640010097400D6
:10275000C008840070089C002008B800D007D8008A
:102760008007000130072C01E00668019006AC01EB
:1027700040060002F0056802A005E002500574035F
:1027800000052404B004F0046004DC051004E40631
:10279000C0030408700330092003780B8002600D29
:1027A000E001A80E4001680FA000C00F0000E80F74
:1027B00060FF0400801AD8009808AC01200780024E
:1027C00050065403C80528045805FC040005D0052C
:1027D000B004A4066804780728044C08E80320091C
:1027E000B003F4097003C80A38039C0BF802700C9C
:1027F000B002440D6802180E0802EC0E8801C00FEA
:102800008800F00F00000000A00F5C006009690064
:1028100010097900C0088C007008A2002008BD00D3
:10282000D007DE008007050130073401E0066D01A6
:102830009006B20140060702F0056D02A005E8020D
:1028400050057B0300052B04B004F8046004EB067C
:10285000C003350920037F0B8002650DE001B00E37
:1028600040011D0FF000480FC8006C0FA000ED0FD5
:1028700060FFFE0F48FE4550523A3120004550524D
:102880003A30200053656C656374457874727564E2
:1028900065723A003A0054617267657445787472E3
:1028A000005461726765744265643A000628B22775
:1028B0004227F2260000000000006A265E250E2551
:1028C00092241624CA2312231C151C140000002273
:1028D00043141F1F132E5072696E74657220736546
:1028E0007420696E746F206472792072756E206D29
:1028F0006F646520756E74696C20726573746172A3
:10290000742100206D61726B6564206465636F756E
:10291000706C656400206D61726B6564206465662F
:10292000656374003A20776F726B696E67003A20B6
:1029300074656D702073656E736F72206465666573
:102940006374004F746865723A0068656174656409
:1029500020626564000000420FA1071605D0030D38
:10296000038B022E02E801B2018601630145012CAE
:102970000117010401F40000000000000000000045
:102980000000000000000024F403D950C38EB1C23F
:10299000A23D96828B3582127AE372816CCB66A857
:1029A00061015DC758EB546151204E1E4B5648C122
:1029B0004559431A41013F093D2F3B7139CD3740FD
:1029C00036C93465331432D430A32F802E6B2D6377
:1029D0002C672B752A8E29B028DC2710274B268FD1
:1029E00025D9242B248223E0224322AC211A218DD5
:1029F000200420801F001F841E0C1E971D261DB85A
:102A00001C4E1CE61B821B201BC11A641A0A1AB238
:102A1000195D190A19B9186A181C18D117881740B6
:102A200017FA16B51673163116F115B31576153A51
:102A3000150015C7148F1458142214EE13BA1388F6
:102A40001356132513F612C71299126C1240121561
:102A500012EB11C1119811701148112111FB10D600
:102A600010B1108D106910461024100210E10FC033
:102A70000FA00F800F610F420F230F060FE80ECB40
:102A80000EAF0E930E770E5C0E410E270E0D0EF359
:102A90000DDA0DC10DA80D900D780D600D490D32A8
:102AA0000D1B0D050DEF0CD90CC30CAE0C990C854C
:102AB0000C700C5C0C480C350C210C0E0CFB0BE85C
:102AC0000BD60BC40BB20BA00B8E0B7D0B6B0B5AF2
:102AD0000B4A0B390B290B180B080BF80AE90AD91A
:102AE0000ACA0ABB0AAC0A9D0A8E0A800A710A63E6
:102AF0000A550A470A390A2C0A1E0A110A040AF75B
:102B000009EA09DD09D009C409B709AB099F09928F
:102B10000987097B096F09630958094C094109367E
:102B2000092B09200915090A090009F508EB08E035
:102B300008D608CC08C208B808AE08A4089A0890BD
:102B40000887087D0874086B08610858084F084614
:102B5000083D0834082C0823081A0812080908013F
:102B600008F807F007E807E007D807D007C807C04C
:102B700007B807B007A807A1075A2D70726F6265E2
:102B80002073746174653A007A5F6D61783A004C25
:102B90002000482000795F6D61783A00785F6D61B0
:102BA000783A00656E6473746F7073206869743A64
:102BB000200044656275674C6576656C3A0050721A
:102BC000696E7465724D6F64653A434E430050728E
:102BD000696E7465724D6F64653A4C61736572001D
:102BE0005072696E7465724D6F64653A4646460070
:102BF0006D6F7665546F5265616C202F207175651D
:102C0000756544656C74614D6F7665207265747589
:102C1000726E73206572726F720020002F006572F1
:102C2000726F722077726974696E6720746F2066A4
:102C3000696C6500504944204175746F74756E6508
:102C40002066696E6973686564202120506C616339
:102C50006520746865204B702C204B6920616E6480
:102C6000204B6420636F6E7374616E747320696EA1
:102C70002074686520436F6E666967757261746958
:102C80006F6E2E68206F7220454550524F4D0044A4
:102C90006F6E6520736176696E672066696C652E5C
:102CA00000436F6E6669673A00534420696E697429
:102CB000206661696C0046696C652073656C6563AC
:102CC000746564002053697A653A0046696C652032
:102CD0006F70656E65643A0066696C652E6F70652D
:102CE0006E206661696C6564000000206465632085
:102CF0000020646566200003000400802500004079
:102D0000380000004B00008070000000960000C0FA
:102D1000DA000000E10000002C010008B201000010
:102D2000C2010000F401000084030090D003000001
:102D3000E803000008070020A1070000100E004073
:102D4000420F0060E316000000000055495F414358
:102D500054494F4E5F45504F534954494F4E200000
:102D600055495F414354494F4E5F5A504F53495460
:102D7000494F4E5F46415354200055495F414354EB
:102D8000494F4E5F59504F534954494F4E5F46414A
:102D90005354200055495F414354494F4E5F5850AA
:102DA0004F534954494F4E5F4641535420005549B3
:102DB0005F414354494F4E5F5A504F534954494F16
:102DC0004E200055495F414354494F4E5F59504F83
:102DD000534954494F4E200055495F414354494F90
:102DE0004E5F58504F534954494F4E2000456E6432
:102DF00053746F703A25647000536574205A206FC5
:102E000066667365743A2554326D6D00536574209F
:102E100059206F66667365743A2554316D6D0053A1
:102E200065742058206F66667365743A2554306D5A
:102E30006D00536574207072696E74206F666673DE
:102E4000657473005A2D70726F62652068656967DA
:102E500068743A257A6800254433203320636F7004
:102E600069657300254432203220636F7069657391
:102E700000254431203120636F70790025443020D3
:102E80004E6F20636F706965730025583520536558
:102E90006C65637420657874722E20360025583472
:102EA0002053656C65637420657874722E2035003C
:102EB0002558332053656C65637420657874722ED1
:102EC0002034005475726E20657874722E2036207E
:102ED0006F6666005475726E20657874722E2035A8
:102EE000206F6666005475726E20657874722E20AD
:102EF00034206F66660054656D702E2036203A25AA
:102F000065352F25453502430054656D702E2035FB
:102F1000203A2565342F25453402430054656D70F1
:102F20002E2034203A2565332F25453302430020D7
:102F30002542436D6D000525656302000525656327
:102F40002F254563020000256F7300255566206D0F
:102F5000207072696E74656400255566206D0025C9
:102F6000557400583A25783020593A257831004D6B
:102F7000756C3A20256F6D202020453A2578340065
:102F80005A3A2578322020427566203A20256F4231
:102F900000422565422F2545620200052565632F05
:102FA00025456302422565422F2545620200256FB3
:102FB00073004275663A20256F42004D756C3A20C9
:102FC000256F6D25252520FD202020453A202578D8
:102FD000346D00466C6F773AFD20256F66252525F8
:102FE0002020205A3A257832000E202565622F25B0
:102FF0004562B020593A257831000A202565302FE6
:10300000254530B020583A257830004C616E677500
:1030100061676500437573746F6D3A2542436D6D4A
:1030200000437573746F6D00476C75652073746928
:10303000636B00477265656E205045542074617063
:103040006500426C756520706170657220746170F6
:1030500065004B6170746F6E004275696C645461F9
:103060006B004E6F20636F6174696E67000042658C
:103070006420636F6174696E672073657420746F78
:103080000042656420636F6174696E670053746108
:103090006E646279004578747275646572206A6145
:1030A0006D0074656D706572617475726573202E44
:1030B0002E2E005761697420666F722074617267EA
:1030C0006574006578747275646572732E00436C64
:1030D00069636B20746F207265686561740049676D
:1030E0006E6F7265204D31303620636D6420254649
:1030F0006900536572766F20706F732E3A20256FCA
:1031000053004175746F6C6576656C3A20256C6C64
:1031100000436C69636B207768656E20646F6E6531
:103120000066696C616D656E742075702F646F77D1
:103130006E00526F7461746520746F206D6F7665D8
:10314000004368616E67652066696C616D656E74C9
:10315000004368616E67652066696C616D656E74B9
:10316000005A2062616279737465702E3A256F5936
:103170006D6D0053746F70205072696E7400536CE3
:103180006F7742616E6700446561642074696D65A4
:103190000041545820706F776572206F6E2F6F66F4
:1031A00066007072696E7465640046696C616D6575
:1031B0006E74207072696E746564005072696E740A
:1031C000696E672074696D6500003A00206461795A
:1031D0007320005072696E74657220726561647943
:1031E0002E005344206361726420696E73657274AB
:1031F000656400534420636172642072656D6F766C
:103200006564005761697420726574722E3A25589E
:1032100055206D6D00576169742074656D702E20A6
:103220002558540243004C6576656C2064656C74C7
:10323000610043616C63756C617465206C657665D3
:103240006C696E67005365742050330053657420B9
:10325000503200536574205031005A2063616C690C
:10326000622E00536574205A3D30005265736574B8
:10327000206D6561732E0053686F77206D656173F3
:103280002E00466C6F77206D756C2E203A256F6688
:10329000252525005370656564206D756C2E3A25D3
:1032A0006F6D2525250020423A2565622F25456250
:1032B00002437E256F620045333A2565322F25454E
:1032C0003202437E256F320045323A2565312F2583
:1032D000453102437E256F310045313A2565302F57
:1032E00025453002437E256F300020453A25656331
:1032F0002F25456302437E256F4300427566666550
:10330000723A256F420055706C6F6164696E672E6A
:103310002E2E006C6F6164656420662E204545503A
:10332000524F4D00436F6E66696775726174696FC5
:103330006E0073746F72656420696E20454550524B
:103340004F4D00436F6E66696775726174696F6E89
:1033500000537465707065722064697361626C6596
:1033600064004B696C6C65640048656174696E67E4
:10337000206265640048656174696E6720657874D1
:10338000727564657200416374696F6E3A256C6191
:10339000005049440042616E6742616E6700592DDA
:1033A0004F66667365743A25587900582D4F6666E6
:1033B0007365743A25587800504944204D61783A35
:1033C000255844004472697665204D61783A255845
:1033D0004D004472697665204D696E3A25586D003E
:1033E00050494420443A2558640050494420493A01
:1033F00025586900436F6E74726F6C2050574D3AB8
:1034000025584D004465616474696D653A255870AE
:103410000050494420503A25587000436F6E747232
:103420006F6C3A25586800416476616E636520715F
:103430007561643A25586100416476616E63652068
:103440006C696E3A25586C00537461622E54696D34
:10345000653A25587700416363656C3A2558410009
:103460004D61782046523A25584600537461727473
:103470002046523A2558660053746570732F4D4D9F
:103480003A2553650042617564726174653A256F2F
:10349000630047656E6572616C005B6D696E5D20EF
:1034A000303D4F6666004469732E20616674657214
:1034B0003A20256970004D61782E20696E61637431
:1034C000697665005B6D696E5D20303D4F66660014
:1034D0004469732E2061667465723A202569730011
:1034E0005374657070657220696E61637469766586
:1034F000005365742066616E2066756C6C005365C0
:10350000742066616E2037352525250053657420AB
:1035100066616E203530252525005365742066616F
:103520006E203235252525005475726E2066616E39
:10353000204F66660046616E2073706565643A25AB
:1035400046732525250046616E207370656564000D
:103550004D696E3A25737A204D61783A25735A0089
:103560005A3A257832206D6D004D696E3A2573798F
:10357000204D61783A25735900593A257831206DEC
:103580006D004D696E3A257378204D61783A257348
:103590005800583A257830206D6D004D696E3A25F7
:1035A000737A204D61783A25735A005A3A25783259
:1035B000206D6D004D696E3A257379204D61783A22
:1035C00025735900593A257831206D6D004D696E8B
:1035D0003A257378204D61783A25735800583A257A
:1035E0007830206D6D003120636C69636B203D2065
:1035F00031206D6D00453A257833206D6D00004D0A
:10360000617820656E6473746F703A25735A004D4B
:10361000696E20656E6473746F703A25737A005A10
:103620003A257832206D6D00004D617820656E641A
:1036300073746F703A257359004D696E20656E641E
:1036400073746F703A25737900593A257831206D7B
:103650006D00004D617820656E6473746F703A255B
:103660007358004D696E20656E6473746F703A25EF
:10367000737800583A257830206D6D00004D6178E0
:1036800020656E6473746F703A25735A004D696ECD
:1036900020656E6473746F703A25737A005A3A2508
:1036A0007832206D6D2025647A25645A00004D61C2
:1036B0007820656E6473746F703A257359004D6994
:1036C0006E20656E6473746F703A25737900593A91
:1036D000257831206D6D2025647925645900004DD1
:1036E000617820656E6473746F703A257358004D6D
:1036F000696E20656E6473746F703A257378005834
:103700003A257830206D6D2025647825645800486E
:103710006F6D653A25665A00486F6D65205A3A25E7
:10372000665A00486F6D6520593A25665900486F02
:103730006D6520583A256658004D61783A25667ABD
:10374000004D6178205A3A25667A004D61782059FB
:103750003A256679004D617820583A25667800460A
:10376000656564726174650044656C6574652066A6
:10377000696C65004D6F756E7420636172640055ED
:103780006E6D6F756E74206361726400436F6E744A
:10379000696E7565207072696E740050617573652D
:1037A000207072696E74005072696E742066696C64
:1037B0006500416E7469206F6F7A65004D6F7665A4
:1037C0002061667465723A254F61004D696E2E6402
:1037D00069737420203A254F64004261636B736CF7
:1037E0002E2020203A254F62005265747261637466
:1037F0002020203A254F7200254F32204F50532071
:103800006661737400254F31204F505320636C6103
:103810007373696300254F30204F5053206F6666E5
:10382000004472792072756E3A25646400457272A4
:103830006F7273203A25646500496E666F20202000
:103840003A256469004563686F2020203A25646F3B
:10385000004C6F616420662E20454550524F4D004C
:1038600053746F726520746F20454550524F4D0060
:10387000416363656C65726174696F6E005A2D4AAD
:1038800065726B203A25614A004A65726B202020E0
:103890003A25616A004D6F76653A25615A004D6F91
:1038A0007665205A203A25615A004D6F7665205979
:1038B000203A256159004D6F76652058203A2561E0
:1038C00058005072696E743A25617A005072696EC0
:1038D00074205A3A25617A005072696E7420593A00
:1038E000256179005072696E7420583A256178001C
:1038F000536574204F726967696E002558322053F2
:10390000656C65637420657874722E2033002558C9
:10391000312053656C65637420657874722E203293
:10392000002558302053656C656374206578747287
:103930002E2031005475726E20657874722E2033FB
:10394000206F6666005475726E20657874722E2042
:1039500032206F6666005475726E20657874722E20
:103960002031206F66660054656D702E2033203A3A
:103970002565322F25453202430054656D702E2097
:1039800032203A2565312F25453102430054656DBB
:10399000702E2031203A2565302F25453002430016
:1039A0004265642074656D703A2565622F25456215
:1039B000024300457874722E20706F736974696FCA
:1039C0006E005A20706F732E2066617374005A2047
:1039D000706F736974696F6E005920706F732E2059
:1039E00066617374005920706F736974696F6E003B
:1039F0005820706F732E2066617374005820706FAA
:103A0000736974696F6E0044697361626C652073D9
:103A10007465707065720053657420746F206F72E6
:103A20006967696E00436F6F6C646F776E004C69F5
:103A3000676874733A256C6F0050726568656174CD
:103A400020414253005072656865617420504C41BA
:103A500000486F6D65205A00486F6D652059004819
:103A60006F6D65205800486F6D6520616C6C004873
:103A70006F6D652064656C7461004465627567678D
:103A8000696E670053442063617264004578747204
:103A90007564657200506F736974696F6E00436F6F
:103AA0006E66696775726174696F6E00256F650077
:103AB000517569636B2073657474696E6773004236
:103AC00061636B2001002A2A2A2A204552524F5254
:103AD000202A2A2A2A004E6F2053442063617264F0
:103AE0000049646C65005072696E74696E670050BD
:103AF00072696E74696E672E2E2E004E6F005965C6
:103B000073004E2F41004F6666004F6E000A3B0661
:103B10003B023BFE3AFB3AEF3AE63AE13AD63AC686
:103B20003ABF3AB03AAC3A9E3A953A8C3A843A7AED
:103B30003A6F3A663A5F3A583A513A453A393A2E2C
:103B40003A253A173A073AFC39F039E539D939CEEE
:103B500039C239B339A0398D397A3967395639457F
:103B600039343921390E39FB38F038E438D838CCBB
:103B700038C238B638AA389E38953889387D3870BA
:103B80003860385138453839382D382138153805DE
:103B900038F837E937DA37CB37BC37B237A7379B36
:103BA000378C377F37743768375F3755374B374136
:103BB0003739372E37233718370F37FF36EF36DFD1
:103BC00036DE36CE36BE36AE36AD369D368D367DD9
:103BD000367C367336633653365236493639362993
:103BE0003628361F360F36FF35FE35F535E635DD1E
:103BF00035CD35C435B435AB359B35923582357905
:103C0000356935603550354635353528351A350C2A
:103C100035FE34F134E034D034C434B634A6349AAA
:103C2000349234853478346B3460345634483438C4
:103C30003427341B3411340434F433EA33E033D200
:103C400033C433B833AB339E3395339133863375F6
:103C500033693362335133433332332433133306FE
:103C600033FB32EA32D932C832B732A632943282CA
:103C70003277326B3263325A3253324C32453232FF
:103C800032263215320332F331E231D331CC31CA2C
:103C900031C931BB31AA31A231913187317E3173C3
:103CA000316131513141313231213111310231F241
:103CB00030DE30CE30C330B330A23095308D30811D
:103CC000306E306D306230593052304230333028EF
:103CD00030213014300B30FA2FE92FD32FBB2FB205
:103CE0002FAE2F9B2F912F802F6F2F632F5F2F5978
:103CF0002F4B2F472F462F3C2F362F2F2F1C2F09AE
:103D00002FF62EE52ED42EC32EB02E9D2E8A2E7C7D
:103D10002E712E642E572E442E322E1F2E0C2EF96D
:103D20002DED2D5761726E696E673A00207A3A0068
:103D300020793A0020783A00496E76616C696420F7
:103D400064656C746120636F6F7264696E61746521
:103D5000202D206D6F76652069676E6F7265640037
:103D60004E6F206D6F766520696E2064656C74619E
:103D7000207365676D656E742077697468203E20D6
:103D800031207365676D656E742E205468697320E9
:103D900073686F756C64206E6576657220686170FB
:103DA00070656E20616E64206D617920636175734A
:103DB0006520612070726F626C656D2100696E20F4
:103DC000717565756544656C74614D6F76652074B9
:103DD0006F2063616C63756C61746544656C7461BC
:103DE0005375625365676D656E7473207265747583
:103DF000726E73206572726F722E0000FF0D3B00B1
:103E000000000000000000000000000000000000B2
:103E1000000000000000000000000000F1000000B1
:103E20000000000000C40000000000000000F000DE
:103E300000000000000000C30000000000000000BF
:103E4000F30000000000000000F40000000000008B
:103E50000000AF0000000000000000AC0000000007
:103E600000000000F300000000000000005F000000
:103E70000000000000005B00000000000000005790
:103E80000000000000000000F3000000000000003F
:103E900000EE0000000000000000ED000000000047
:103EA000000000EB00303E273E1E3E153E543E4BC8
:103EB0003E423E393E783E6F3E663E5D3E9C3E93BE
:103EC0003E8A3E813E0000000400A53E0000000442
:103ED00000AD3E0000000400B53E0000000400BD3F
:103EE0003E57726F6E6720636865636B73756D0014
:103EF000DA3ED33ECC3EC53E0000003FCDCC4C3D2B
:103F00000AD7A33B6F12033A00002110422063300E
:103F10008440A550C660E770088129914AA16BB121
:103F20008CC1ADD1CEE1EFF13112100273325222C9
:103F3000B5529442F772D662399318837BB35AA371
:103F4000BDD39CC3FFF3DEE3622443342004011499
:103F5000E664C774A44485546AA54BB528850995C1
:103F6000EEE5CFF5ACC58DD5533672261116300669
:103F7000D776F6669556B4465BB77AA71997388711
:103F8000DFF7FEE79DD7BCC7C448E5588668A77829
:103F90004008611802282338CCC9EDD98EE9AFF961
:103FA000488969990AA92BB9F55AD44AB77A966A09
:103FB000711A500A333A122AFDDBDCCBBFFB9EEBB1
:103FC000799B588B3BBB1AABA66C877CE44CC55CD9
:103FD000222C033C600C411CAEED8FFDECCDCDDD01
:103FE0002AAD0BBD688D499D977EB66ED55EF44EA9
:103FF000133E322E511E700E9FFFBEEFDDDFFCCF51
:104000001BBF3AAF599F788F8891A981CAB1EBA1A4
:104010000CD12DC14EF16FE18010A100C230E32020
:104020000450254046706760B9839893FBA3DAB3C8
:104030003DC31CD37FE35EF3B1029012F322D23270
:104040003542145277625672EAB5CBA5A895898598
:104050006EF54FE52CD50DC5E234C324A0148104C0
:104060006674476424540544DBA7FAB79987B89768
:104070005FE77EF71DC73CD7D326F2369106B01610
:1040800057667676154634564CD96DC90EF92FE928
:10409000C899E9898AB9ABA9445865480678276860
:1040A000C018E1088238A3287DCB5CDB3FEB1EFB08
:1040B000F98BD89BBBAB9ABB754A545A376A167AB0
:1040C000F10AD01AB32A923A2EFD0FED6CDD4DCDD8
:1040D000AABD8BADE89DC98D267C076C645C454C00
:1040E000A23C832CE01CC10C1FEF3EFF5DCF7CDFA8
:1040F0009BAFBABFD98FF89F176E367E554E745E50
:10410000932EB23ED10EF01E00401454534420634F
:1041100061726420696E7365727465640053442033
:10412000636172642072656D6F76656400526571BB
:104130007565737450617573653A486F6D696E6724
:10414000206661696C65642100686F6D65417869FE
:1041500073200055495F414354494F4E5F484F4DCE
:1041600045414C4C2000005344207072696E74200D
:1041700073746F7070656420627920757365722E38
:1041800000006D6F7665546F202F20717565756521
:1041900044656C74614D6F76652072657475726EDE
:1041A00073206572726F72007A2D70726F62652073
:1041B000646964206E6F7420756E747269676765D8
:1041C0007220616674657220676F696E6720626134
:1041D000636B20746F20737461727420706F7369E5
:1041E00074696F6E2E0020593A0020583A005A2DFB
:1041F00070726F62653A005A2D70726F6265206648
:1042000061696C6564007A2D70726F6265207472EA
:1042100069676765726564206265666F72652073A1
:1042200074617274696E672070726F62696E672E56
:10423000004E414E494E495459494E46CDCCCC3D95
:104240000AD7233C17B7D13877CC2B329595E62483
:104250001FB14F0A000020410000C84200401C4628
:1042600020BCBE4CCA1B0E5AAEC59D740D01112454
:104270001FBECFEFD1E2DEBFCDBF00E00CBF13E029
:10428000A0E0B2E0E6E5F4E102E00BBF02C0079077
:104290000D92A037B107D9F72DE1A0E7B3E001C037
:1042A0001D92AC35B207E1F711E2C7E3D1E200E0BD
:1042B00006C021970109802FFE010F940B01C63320
:1042C000D10780E00807A9F70E9499FB0D94290AFD
:1042D0000C9400002F923F924F925F926F927F92C8
:1042E0008F929F92AF92BF92CF92DF92EF92FF9206
:1042F0000F931F93CF93DF93CDB7DEB7CD58D1097E
:104300000FB6F894DEBF0FBECDBF8C01DC01169650
:104310008D919C911797893C910511F40C94F02E86
:1043200008F002C18335910511F40C945A2B08F062
:104330008CC08A31910509F412C708F058C0853144
:10434000910509F4EAC608F03FC08330910510F4E6
:104350000C949D398630910510F40C94823C44975E
:1043600011F00C949D391E8E19A28CE292E00E94ED
:10437000AE8B60E085E29BE10E94849D6AE27BE176
:10438000CE014E960E94E79B19821C82CE014E966A
:104390000E94A09D1092890689E896E09AAF89AFA5
:1043A0008DE1FE017E96DE01119601900D928A95B7
:1043B000E1F760E0CE0101960E94C0C78EE192E075
:1043C0000E94AE8B0C94823C8731910509F4ADC6F6
:1043D00008F4A7C68831910509F4BDC6499711F0C4
:1043E0000C949D3980E00E94CCF70C94823C803282
:1043F000910509F4B9C780F48C31910509F4F6C62A
:1044000008F4CCC68D31910511F40C94823C4E9782
:1044100009F435C70C949D398035910511F40C943D
:104420003A2B28F48A9709F4E7C70C949D39813513
:10443000910511F40C944F2B8235910511F00C94D9
:104440009D39109235070C94823C8F36910511F4FA
:104450000C94142E70F58836910511F40C94422CAE
:10446000A0F48535910511F40C947D2B10F40C9477
:104470005F2B8C35910511F40C94A12B833691059B
:1044800011F40C94ED2B0C949D398A36910511F49E
:104490000C94E12D10F40C94BF2C8B36910511F483
:1044A0000C94FE2D8D36910511F40C94CC2C0C94AB
:1044B0009D398737910511F40C947C2EE0F48337F5
:1044C000910511F40C944B2E58F48237910511F09C
:1044D0000C949D3989E99EE00E94F74F0C94823C30
:1044E0008437910509F40FC68537910511F40C94B2
:1044F000552E0C949D398C38910511F40C94832C15
:1045000038F48837910511F40C94862E0C949D395B
:104510008E3B910511F40C94242D883C910511F4E7
:104520000C94972E0C949D398336B1E09B0711F4BF
:104530000C94AA3608F005C3823E910511F40C9440
:10454000AA3008F073C28E3C910511F40C94DB2F55
:1045500008F053C28B3C910511F40C94772F10F4A2
:104560000C94352F8C3C910511F40C94922F8D3CBA
:10457000910511F00C949D3964EE79E084E094E0AB
:104580000E9406AD6BED79E08BE490E00E94B18B68
:1045900043E066EC79E081E890E00E94CD8B63EB2C
:1045A00079E08DE790E00E94B18B65E979E08FE4D6
:1045B00090E00E94B18B6CE679E083E590E00E9488
:1045C000B18B44E06FE579E08BE090E00E94CD8B09
:1045D00043E06AE479E087E190E00E94CD8B43E01C
:1045E00063E379E083E290E00E94CD8B43E062E2F6
:1045F00079E087E290E00E94CD8B43E063E179E0CF
:1046000085E890E00E94CD8B43E064E079E089E8A2
:1046100090E00E94CD8B43E065EF78E08DE890E07C
:104620000E94CD8B43E063EE78E081E990E00E9448
:10463000CD8B43E061ED78E085E990E00E94CD8B81
:1046400043E06FEB78E089E990E00E94CD8B69EA66
:1046500078E08BE793E00E942AAD61E978E089E792
:1046600093E00E942AAD43E06BE778E08BE390E0B3
:104670000E94CD8B43E06EE578E087E490E00E94F5
:10468000CD8B43E065E478E081E793E00E94CD8B39
:1046900043E063E278E085E793E00E94CD8B43E05E
:1046A00069E078E08DE993E00E94CD8B6AEE77E0D7
:1046B0008DE793E00E942AAD6BEC77E08FE793E003
:1046C0000E942AAD6CEA77E081E893E00E942AAD6F
:1046D00043E06EE977E085E893E00E94CD8B43E00C
:1046E00060E977E089E893E00E94CD8B43E063E8DE
:1046F00077E08DE893E00E94CD8B43E060E777E0C0
:1047000081E993E00E94CD8B43E06DE577E085E998
:1047100093E00E94CD8B43E06AE477E089E993E07F
:104720000E94CD8B43E064E377E085EA93E00E944A
:10473000CD8B43E06EE177E089EA93E00E94CD8B78
:1047400043E068E077E08DEA93E00E94CD8B43E0A0
:1047500061EF76E080E094E00E94CD8B43E06DED68
:1047600076E088E293E00E94CD8B43E06FEB76E049
:1047700081EA93E00E94CD8B43E06AEA76E08CE226
:1047800093E00E94CD8B43E061E976E088E493E01A
:104790000E94CD8B43E06BE776E080E293E00E94DD
:1047A000CD8B43E065E676E084E293E00E94CD8B1A
:1047B00043E065E576E080E393E00E94CD8B43E043
:1047C00065E476E084E393E00E94CD8B43E065E30B
:1047D00076E088E393E00E94CD8B43E065E276E0EB
:1047E0008CE393E00E94CD8B43E065E176E080E4CA
:1047F00093E00E94CD8B43E065E076E084E493E0B3
:104800000E94CD8B43E063EE75E08CE094E00E9463
:10481000CD8B43E061EC75E080E194E00E94CD8BAC
:1048200043E06FE975E084E194E00E94CD8B68E895
:1048300075E080E793E00E9406AD43E060E775E035
:1048400080ED93E00E94CD8B43E068E575E084ED58
:1048500093E00E94CD8B43E060E475E088ED93E047
:104860000E94CD8B69E275E08AE690E00E9406AD79
:1048700067E175E08BE690E00E9406AD65E075E0CB
:104880008CE790E00E9406AD43E066EF74E08CE6B2
:1048900090E00E94CD8B43E067EE74E080E790E00B
:1048A0000E94CD8B43E068ED74E084E790E00E94C5
:1048B000CD8B6EEB74E088E790E00E9406AD6BE96B
:1048C00074E08CEF93E00E9406AD43E064E874E08E
:1048D00080EE93E00E94CD8B43E06CE674E088EEBE
:1048E00093E00E94CD8B43E065E574E08CEE93E0AD
:1048F0000E94CD8B43E060E374E080EF93E00E9480
:10490000CD8B43E06AE174E088EF93E00E94CD8BA9
:1049100043E06DE074E088EC90E00E94CD8B43E0D2
:1049200068EF73E08CEC90E00E94CD8B43E062EE88
:1049300073E080ED90E00E94CD8B43E06CEC73E07F
:1049400084ED90E00E94CD8B69EB73E088ED90E000
:104950000E9406AD6BEA73E089ED90E00E9406AD1F
:104960006DE973E085EF90E00E9406AD44E068E8F1
:1049700073E08AED90E00E94CD8B44E06DE773E038
:104980008EED90E00E94CD8B44E062E773E082EE12
:1049900090E00E94CD8B6CE573E086EE90E00E9483
:1049A00006AD6BE473E087EE90E00E94B18B6AE3A2
:1049B00073E08BEE90E00E94B18B69E273E082E2DB
:1049C00091E00E94B18B60E173E08FEE90E00E9475
:1049D0002AAD6AEE72E08AEF90E00E942AAD64ECA4
:1049E00072E08CEF90E00E942AAD66EA72E08EEFF2
:1049F00090E00E9406AD0C94823C813D910511F43B
:104A00000C94613038F48F3C910511F40C942F30E4
:104A10000C949D398C3D910511F40C9483308D3D9F
:104A2000910511F40C9495300C949D398F32F1E07E
:104A30009F0711F40C947B3308F061C0893131E099
:104A4000930711F40C94B73008F04CC08B3F9105DC
:104A500011F00C949D392091F8063091F90640919F
:104A6000FA065091FB06609196037091970380912E
:104A70009803909199030F942E016093960370937D
:104A8000970380939803909399031092E8061092ED
:104A9000E9061092EA061092EB060E94B1BB6EEC9A
:104AA00076E080EE96E00E94977380E00E94ADB8B9
:104AB00040919603509197036091980370919903E8
:104AC00022E08AE19DE10E941C8B80E00E944B87DE
:104AD0008BE09DE10E94AE8B85E39EE00E94F74F44
:104AE0000C94823C8C3251E0950711F40C94BD304B
:104AF0008E32914011F40C9454330C949D398134CE
:104B0000B1E09B0711F40C94803650F4803491404E
:104B100011F00C949D3981E00E94B6560C949836A1
:104B2000823421E0920711F40C9495368E35914031
:104B300011F00C949D398DEB9DE00E94AE8B0C948E
:104B4000823C853F41E0940711F40C94F83608F05C
:104B5000A0C2823CA1E09A0711F40C94EA3608F056
:104B60007BC28039E1E09E0711F40C94B43608F062
:104B700066C28836914011F00C949D394091200214
:104B800050912102609122027091230281EA9CE2FD
:104B9000C657DF4F4883CA58D040C557DF4F5883A8
:104BA000CB58D040C357DF4F6883CD58D040C4574F
:104BB000DF4F7883CC58D0400E944E8AC657DF4FD3
:104BC0004881CA58D040C557DF4F5881CB58D04094
:104BD000C357DF4F6881CD58D040C457DF4F78812D
:104BE000CC58D04089EF9CE00E94518B6FE770E079
:104BF0008CEE9CE00E947FFB61E070E08FED9CE01A
:104C00000E947FFB60E070E08FEC9CE00E947FFBE5
:104C100061E070E084EC9CE00E947FFB61E070E06A
:104C20008CEB9CE00E947FFB61E070E087EB9CE0F6
:104C30000E947FFB81EA9CE20E944E8A80EB9CE00E
:104C40000E94AE8B61E070E08BEA9CE00E947FFBEB
:104C500061E070E086E99CE00E947FFB6FEF7FEFF0
:104C60008CE89CE00E947FFB6FEF7FEF82E89CE086
:104C70000E947FFB61E070E088E79CE00E947FFB80
:104C800061E070E089E69CE00E947FFB61E070E0FB
:104C90008DE49CE00E947FFB60E070E081E49CE09A
:104CA0000E947FFB61E070E089E39CE00E947FFB53
:104CB00061E070E08EE29CE00E947FFB61E070E0CA
:104CC00086E29CE00E947FFB60E170E086E19CE070
:104CD0000E947FFB40913707509138076091390758
:104CE00070913A078EE09CE00E94E0C480EE93E071
:104CF0000E94C359AB01BC018CEF9BE00E94E0C451
:104D000084EE93E00E94C359AB01BC0186EE9BE0A8
:104D10000E94E0C488EE93E00E94C359AB01BC013D
:104D200085ED9BE00E94E0C48CEE93E00E94C359A5
:104D3000AB01BC0184EC9BE00E94E0C480EF93E0F7
:104D40000E94C359AB01BC0189EA9BE00E94E0C408
:104D500084EF93E00E94C359AB01BC018AE89BE059
:104D60000E94E0C488EF93E00E94C359AB01BC01EC
:104D700085E79BE00E94E0C440911F04509120040D
:104D800060912104709122048FE69BE00E94E0C4B0
:104D900040911B0450911C0460911D0470911E04ED
:104DA00089E69BE00E94E0C44091170450911804EA
:104DB0006091190470911A0483E69BE00E94E0C49C
:104DC00020912704309128044091290450912A040D
:104DD00060911F047091200480912104909122041D
:104DE0000F942F01AB01BC018DE59BE00E94E0C454
:104DF00020912304309124044091250450912604ED
:104E000060911B0470911C0480911D0490911E04FC
:104E10000F942F01AB01BC0187E59BE00E94E0C429
:104E200020919603309197034091980350919903F4
:104E300060911704709118048091190490911A04DC
:104E40000F942F01AB01BC0181E59BE00E94E0C4FF
:104E500040912704509128046091290470912A04FC
:104E60008AE49BE00E94E0C4409123045091240412
:104E7000609125047091260483E49BE00E94E0C4C5
:104E80004091960350919703609198037091990314
:104E90008CE39BE00E94E0C440911F0350912003EB
:104EA00060912103709122038FE29BE00E94E0C495
:104EB00040912303509124036091250370912603B0
:104EC00082E29BE00E94E0C44091270350912803B6
:104ED0006091290370912A0385E19BE00E94E0C460
:104EE00040910F03509110036091110370911203D0
:104EF00087E09BE00E94E0C44091130350911403AB
:104F0000609115037091160389EF9AE00E94E0C446
:104F100040911703509118036091190370911A037F
:104F20008BEE9AE00E94E0C481EA9CE20E944E8AE5
:104F300089ED9AE00E94AE8B68E770E08DEC9AE014
:104F40000E947FFB81EA9CE20E944E8A61E070E051
:104F500086EC92E20E94908B8AE30E94435140913A
:104F6000AA025091AB026091AC027091AD0222E0B6
:104F700087EC9AE00E941C8B81EA9CE20E944E8A98
:104F800061E070E086EC92E20E94908B8AE30E94DE
:104F900043514091A2025091A3026091A4027091EA
:104FA000A50222E08DEB9AE00E941C8B81EA9CE234
:104FB0000E944E8A61E070E086EC92E20E94908B43
:104FC0008AE30E9443514091A6025091A70260914A
:104FD000A8027091A90222E08FEA9AE00E941C8B3D
:104FE00081EA9CE20E944E8A61E070E086EC92E2E7
:104FF0000E94908B8AE30E94435140910903509193
:105000000A0360910B0370910C0322E085EA9AE099
:105010000E941C8B81EA9CE20E944E8A61E070E053
:1050200086EC92E20E94908B8AE30E94435163E1F6
:1050300071E08CE99AE00E946B8B0C94823C813980
:1050400031E0930711F40C94B7368239914011F492
:105050000C94BA360C949D39843C51E0950711F4B8
:105060000C94F23610F40C94ED36853CB1E09B07BD
:1050700011F40C94F536843F914011F00C949D3955
:1050800080E00E944B878DE99DE00E94FD8B0C948F
:10509000823C8B35F2E09F0711F40C944439D8F42C
:1050A000883532E0930711F40C94ED3838F4863FDC
:1050B000914011F40C9407370C949D398935A2E086
:1050C0009A0711F40C94F3388A35924011F40C9439
:1050D00006390C949D398F38E3E09E0768F48B38CD
:1050E000F3E09F0710F00C94823C8A37934011F450
:1050F0000C9448390C949D39873E934011F40C94DC
:105100007B390C949D3988EB92E00E9455AC84E485
:1051100092E00E9455AC0C94823C0E94BFC40C9457
:10512000823C0E94C8C40C94823CD8018D919C9111
:1051300097FD02C00C94823C60E085E29BE10E94F6
:10514000849DF801EE5AFF4F60E0808191810E94BA
:1051500004C40C94823C0E9485C40C94823CF801E7
:105160008081918192FD02C00C94823C468D578DC6
:1051700060A171A180918F1B882311F40C94823C53
:105180004093861B5093871B6093881B7093891BE9
:1051900085E69BE10E94DBB00C94823C80918F1BE2
:1051A0008823F1F0C090861BD090871BE090881B6D
:1051B000F090891B8CE392E00E944E8AC701B601F1
:1051C0000E94E9894091821B5091831B6091841B4E
:1051D0007091851B8CE19CE20E94378B0C94823C81
:1051E0008EE492E00E94AE8B0C94823CD8018D91AB
:1051F0009C9197FD02C00C94823CF801EE5AFF4F3F
:105200000081118180918F1B882311F40C94823CC2
:1052100085E69BE10E94769C10928E1B60E085E201
:105220009BE10E94849D6091691A70916A1A26E53B
:10523000A80185E69BE10E9410A081110BC080E7C8
:1052400092E00E944E8AC8010E94DD890E94485166
:105250000C94823C89EA90E00E94AFDB60E00E94FF
:1052600096EB81E08093901B8EE592E00E944E8A3F
:10527000C8010E94DD890E9448510C94823CF801CB
:105280008081918197FD02C00C94823C60E085E2B0
:105290009BE10E94849DF801EE5AFF4F008111812D
:1052A00080918F1B882311F40C94823C10928E1BEA
:1052B00085E69BE10E94769CC8010E9401C5882377
:1052C00031F080EA9CE10E94AE8B0C94823C198202
:1052D0001C826091691A70916A1A21E0A801CE01BE
:1052E00001960E9410A08823C9F18C818430B1F509
:1052F000CE0101960E94A09D4C855D856E857F85BF
:105300008C899D89AE89BF89481759076A077B0731
:1053100050F4CE0101960E94B4B30097F9F0DC017D
:105320002C9121110CC081E08C838A8182608A8358
:10533000CE0101960E9453EC882381F009C0253EDE
:10534000D9F22E32C9F2FC01838583FDD5CF06C088
:10535000CE0101960E9433AF8111B3CF80E99CE169
:105360000E94AE8B0C94823CD8018D919C9197FD4C
:1053700002C00C94823C60E085E29BE10E94849D27
:10538000F801EE5AFF4FC080D18080918F1B882397
:1053900011F40C94823C10928E1B85E69BE10E94D6
:1053A000769C1E8E19A219821C82EE24E3948E0133
:1053B0000F5F1F4F9E01255C3F4FA60168E47BE114
:1053C000CE014E960E94E5EC882381F0AE01455C4B
:1053D0005F4FB801CE014E960E944BA0882331F05A
:1053E00084E992E00E94AE8B0C94823C84E892E0C7
:1053F0000E94AE8B0C94823CF8012081318133FDF8
:1054000002C00C94823CD2A0AD2CB3A0E7EAFFE02E
:105410004BE14E0F849190E08A159B0509F424C15D
:1054200031964E13F7CFB7FC1FC132FF0AC1F80106
:10543000868D978DA0A1B1A18F3F9105A105B105E2
:1054400011F008F0F8C061E08D2D0E945385D8015D
:105450005E966C918D2D0E948284F801F68CE78C0B
:105460008F2C9E2C61E08D2D0E9453858114910418
:1054700009F4CBC0FFEF8F16910409F4C8C0F50101
:10548000FF27E55CFE4DE4918E2F90E0FC01319703
:10549000E231F10508F0B5C08827EE58FF4F8F4F75
:1054A0000D940B0184B5806884BDF7BCB4C084B58D
:1054B000806284BDF8BCAFC080918000806880931A
:1054C00080008F2D9E2D9093890080938800A3C02B
:1054D000809180008062809380008F2D9E2D90931C
:1054E0008B0080938A0097C08091800088608093B1
:1054F00080008F2D9E2D90938D0080938C008BC00B
:105500008091B00080688093B000F092B30083C0B7
:105510008091B00080628093B000F092B4007BC0B4
:10552000809190008068809390008F2D9E2D9093A5
:105530009900809398006FC0809190008062809362
:1055400090008F2D9E2D90939B0080939A0063C0B6
:10555000809190008860809390008F2D9E2D909375
:105560009D0080939C0057C08091A000806880932C
:10557000A0008091A0008F7B8093A0008F2D9E2D96
:105580009093A9008093A80046C08091A0008062FB
:105590008093A0008F2D9E2D9093AB008093AA0046
:1055A0003AC08091A00088608093A0008F2D9E2D2E
:1055B0009093AD008093AC002EC080912001806854
:1055C000809320018F2D9E2D909329018093280197
:1055D00022C0809120018062809320018F2D9E2D1A
:1055E00090932B0180932A0116C08091200188603E
:1055F000809320018F2D9E2D90932D0180932C015F
:105600000AC020E88216910414F460E001C061E051
:105610008D2D0E948284B5018AE99FE00E94908BC3
:10562000D8015E966D917C915F9785E99FE00E941D
:105630006B8B0C94823C8DE79FE00E94F38B0C9463
:10564000823C62E08D2D0E945385B50185E99FE083
:105650000E94908B8D2D0E945A84BC0188E79FE0A8
:105660000E946B8B0C94823C86E49FE00E94F38B3B
:105670000C94823C0E9402560E9459DB60934207C0
:10568000709343078093440790934507269A80912F
:10569000241B80648093241B2E980C94823C0E94CF
:1056A0000256269A8091241B8F7B8093241B2E9A6E
:1056B0000C94823C81E0809335070C94823CF80185
:1056C0008081918192FF12C0268D378D40A151A11A
:1056D000A8EEB3E00F94100A6093240270932502A1
:1056E00080932602909327020C94823C0E940256DB
:1056F00081E00E9465BB0C94823CD8018D919C9105
:10570000119792FF14C05E962D913D914D915C9141
:105710009197A8EEB3E00F94100A60932707709357
:1057200028078093290790932A070C94823C1092B3
:105730002707109228071092290710922A070C9425
:10574000823CF801808183FF0CC0428553856485CB
:10575000758540931002509311026093120270936A
:10576000130284FF0FC0D8011E964D915D916D917B
:105770007C91519740931402509315026093160246
:105780007093170285FF0DC0F80182899389A4895F
:10579000B5898093180290931902A0931A02B093CE
:1057A0001B020E94B1BBD8018C9186FD02C00C94F3
:1057B000823C209133073091340756968D919D910C
:1057C0000D90BC91A02DF90185879687A787B08B96
:1057D00080810E9476AA0C94823CD801ED91FC91C4
:1057E0001197F2FF0DC05E962D913D914D915C9108
:1057F0009197A8EEB3E00F94100A6B017C0106C0EC
:1058000050E1C52E57E2D52EE12CF12CE3FD5F9A35
:10581000F801808184FD8A9AD8018C9185FF05C0AA
:10582000809108018160809308010E9459DBC60EB7
:10583000D71EE81EF91E0E9459DBA7019601261B00
:10584000370B480B590BDA01C901803A9648A14041
:10585000B10518F40E9473F4EECFD8018C9183FD4A
:105860005F98F801808184FD8A98D8018C9185FD2C
:1058700002C00C94823C809108018E7F80930801C5
:105880000C94823C0E948EA3F82E81110C94823CD1
:105890000E9459DB6093420770934307809344074B
:1058A0009093450780910E0383FF02C00C94823CC5
:1058B000F8018081918193FF02C00C94A93992FF75
:1058C0000AC0868D978DA0A1B1A1892B8A2B8B2B25
:1058D00011F40C94A939D8018D919C9192FD02C0CC
:1058E0000C94823C9C012227317091FD02C00C94E3
:1058F000CD39F801EC5AFF4F8081882311F40C94C4
:10590000AD390C94CD390E948EA3F82E81110C94E0
:10591000823C0E9459DB6093420770934307809357
:1059200044079093450780910E0383FF02C00C94B7
:10593000823CD8018D919C91119792FD02C00C94EC
:10594000823C90FF10C0FF24F39420E030E0A901D6
:105950005A966D917D918D919C915D970F9449031D
:1059600018160CF0F12CF801668D778D80A191A1AD
:105970000F9488084F2D0E9418A60C94823CD801E1
:105980008D919C9143E0969587954A95E1F78170BA
:105990000E944C510C94823C0E948EA3F82E8111DF
:1059A0000C94823C0E9459DB60934207709343073A
:1059B000809344079093450780910E0383FF02C0B4
:1059C0000C94823C0E940256C0903307D09034075A
:1059D000F8018081918191FF09C0EC5AFF4F20812D
:1059E000211104C03FE8C32E32E0D32E92FF20C025
:1059F00090FF11C0FF24F39420E030E0A901D8010A
:105A00005A966D917D918D919C915D970F9449036C
:105A100018160CF0F12CF801668D778D80A191A1FC
:105A20000F94880801E02F2DD6014C910E94CEA63C
:105A30000E9459DB609342077093430780934407A9
:105A4000909345070C94823C80910E0383FF02C023
:105A50000C94823C82EA90E00E94AFDB60E00E94FE
:105A600096EB0E94C3E60E940256F8018081918164
:105A700092FF1CC090FF0DC0FF24F39420E030E0A3
:105A8000A901628D738D848D958D0F94490318162D
:105A90000CF0F12CD8015E966D917D918D919C91C9
:105AA00091970F9488084F2D0E9418A620914E02BE
:105AB00030914F02409150025091510260914A0240
:105AC00070914B0280914C0290914D020F942E01E7
:105AD0006B017C0120E030E0A9010F944903181606
